:100000000C942A000C943F000C943F000C943F0089
:100010000C943F000C943F000C943F000C943F0064
:100020000C943F000C943F000C943F000C943F0054
:100030000C943F000C943F000C943F000C943F0044
:100040000C943F000C943F000C943F000C943F0034
:100050000C943F0011241FBECFE5D4E0DEBFCDBF1E
:1000600010E0A0E6B0E0E6E4F2E002C005900D92F8
:10007000A037B107D9F70E94FF000C9421010C941E
:1000800000004AE050E087C09A0142315105E8F48F
:10009000E82FF0E04E175F07C1F44A502AB381E021
:1000A00090E002C0880F991F4A95E2F7282B2ABBDF
:1000B000683611F0683421F49BB3892B8BBB08950B
:1000C0009BB3809589238BBB0895F90172973A976A
:1000D000E8F4E82FF0E04E175F07C1F4445127B36E
:1000E00081E090E002C0880F991F4A95E2F7282B23
:1000F00027BB683611F0683421F498B3892B88BB8C
:10010000089598B38095892388BB0895F9017C9759
:100110003A97E8F4E82FF0E04E175F07C1F44E512C
:1001200024B381E090E002C0880F991F4A95E2F75E
:10013000282B24BB683611F0683421F495B3892B41
:1001400085BB089595B38095892385BB0895265274
:1001500031092A303105E8F4282F30E042175307DF
:10016000C1F4485221B381E090E002C0880F991F8A
:100170004A95E2F7282B21BB683611F0683421F448
:1001800092B3892B82BB089592B38095892382BB59
:1001900008954F5F5F4F403351050CF475CF0895BC
:1001A000DF92EF92FF920F931F93CF93DF937C0127
:1001B000D62EC0E0D0E00BE010E014C000FF08C075
:1001C00068E6F701EC0FFD1F80810E94410007C027
:1001D0006CE6F701EC0FFD1F80810E944100159530
:1001E000079521968D2D90E0C817D9073CF3DF9134
:1001F000CF911F910F91FF90EF90DF900895CF93D3
:10020000DF93CDB7DEB760970FB6F894DEBF0FBEB1
:10021000CDBF80E1E0E6F0E0DE01119601900D92A5
:100220008A95E1F760E1CE0101960E94D0002FE9A6
:1002300086E891E0215080409040E1F700C0000046
:06024000FFCFF894FFCF90
:100246000A0B0C0D0E0F10111415161718191A1B80
:00000001FF
